:060000000A128A11EE2F26
:100D84008316031386018312031386010800423479
:100D940033343234313441343234333434347E08ED
:100DA4008A007F0882000A128A11D1260A128A1147
:100DB4008000840A04087D0603190034FF0A03191D
:100DC400FE0AD52EF001F00A04300A128A11052712
:100DD4000A128A11F001F00A03300A128A11052757
:100DE4000A128A110F30F00001300A128A11052705
:100DF4000A128A11F030F00002300A128A11052713
:100E04000A128A110800F300831203138610F401F6
:100E1400F5017308F10007300310F10CFF3E031DC8
:100E24000E2F01307105F2008312031306087206B7
:100E3400FE397206860006111F2F202F0000831230
:100E4400031306150310F30D0130F4070318F50A14
:100E54000030F5077508803AFF0080307F02031DDB
:100E6400352F08307402031C382F392F0B2FF6014D
:100E7400F7017008F10007300310F10CFF3E031D69
:100E84003E2F01307105F200831203130608720627
:100E9400FE397206860006114F2F502F0000831270
:100EA400031306150310F00D0130F6070318F70AB3
:100EB4000030F7077708803AFF0080307F02031D77
:100EC400652F08307602031C682F692F3B2F83128D
:100ED4000313861408000A128A11C2260A128A1100
:100EE4000A128A11E4260A128A11831203133308A0
:100EF400A3003208A2003108A1003008A0002F0886
:100F0400A7002E08A6002D08A5002C08A400A801FF
:100F1400A9012808203E840083130008F000280853
:100F2400203E0A128A1105270A128A1101308312FF
:100F34000313A8070318A90A0030A90700302902DF
:100F4400043003192802031CA82FA92F8B2FFE306D
:100F5400FA00A730F9006530F800F80BAF2FF90B51
:100F6400AF2FFA0BAF2FB62F83120313AA01AB01D5
:100F7400831203132A08243E840083130008F0001C
:100F84002A08203E0A128A1105270A128A11013002
:100F940083120313AA070318AB0A0030AB072B080C
:100FA400803AFF0080307F02031DDA2F04302A02CA
:100FB400031CDD2FDE2FBA2FFE30FA00A730F90014
:100FC4006530F800F80BE42FF90BE42FFA0BE42F4B
:100FD400EB2F0A128A11002883133430FD000630E7
:100FE400FE00C930FF002C3084000A128A11D52675
:0C0FF4000A128A1183010A128A116D2F63
:02400E003B3F36
:00000001FF
